{
    "_format": "hh-sol-artifact-1",
    "contractName": "RedEnvelope",
    "sourceName": "contracts/RedEnvelope.sol",
    "abi": [
        {
            "anonymous": false,
            "inputs": [
                {
                    "indexed": false,
                    "internalType": "address",
                    "name": "account",
                    "type": "address"
                }
            ],
            "name": "Paused",
            "type": "event"
        },
        {
            "anonymous": false,
            "inputs": [
                {
                    "indexed": false,
                    "internalType": "address",
                    "name": "account",
                    "type": "address"
                }
            ],
            "name": "Unpaused",
            "type": "event"
        },
        {
            "inputs": [
                {
                    "internalType": "uint256",
                    "name": "",
                    "type": "uint256"
                }
            ],
            "name": "_Envelopes",
            "outputs": [
                {
                    "internalType": "enum RedEnvelope.EnvelopeType",
                    "name": "_type",
                    "type": "uint8"
                },
                {
                    "internalType": "address",
                    "name": "_contractAddress",
                    "type": "address"
                },
                {
                    "internalType": "string",
                    "name": "_name",
                    "type": "string"
                },
                {
                    "internalType": "string",
                    "name": "_messasge",
                    "type": "string"
                },
                {
                    "internalType": "uint256",
                    "name": "_noOfUsers",
                    "type": "uint256"
                },
                {
                    "internalType": "uint256",
                    "name": "_amountPerUsers",
                    "type": "uint256"
                },
                {
                    "internalType": "uint256",
                    "name": "_claimsLeft",
                    "type": "uint256"
                },
                {
                    "internalType": "uint256",
                    "name": "_expiry",
                    "type": "uint256"
                },
                {
                    "internalType": "bool",
                    "name": "_gameMode",
                    "type": "bool"
                },
                {
                    "internalType": "uint256",
                    "name": "_ERC20Amount",
                    "type": "uint256"
                },
                {
                    "internalType": "uint256",
                    "name": "_ERC721TokenID",
                    "type": "uint256"
                }
            ],
            "stateMutability": "view",
            "type": "function"
        },
        {
            "inputs": [
                {
                    "internalType": "uint256",
                    "name": "_envelopeId",
                    "type": "uint256"
                }
            ],
            "name": "claimEnvelopeById",
            "outputs": [],
            "stateMutability": "nonpayable",
            "type": "function"
        },
        {
            "inputs": [
                {
                    "internalType": "enum RedEnvelope.EnvelopeType",
                    "name": "_type",
                    "type": "uint8"
                },
                {
                    "internalType": "address",
                    "name": "_contractAddress",
                    "type": "address"
                },
                {
                    "internalType": "string",
                    "name": "_name",
                    "type": "string"
                },
                {
                    "internalType": "string",
                    "name": "_messasge",
                    "type": "string"
                },
                {
                    "internalType": "uint256",
                    "name": "_noOfUsers",
                    "type": "uint256"
                },
                {
                    "internalType": "uint256",
                    "name": "_amountPerUsers",
                    "type": "uint256"
                },
                {
                    "internalType": "uint256",
                    "name": "_tokenId",
                    "type": "uint256"
                },
                {
                    "internalType": "uint256",
                    "name": "_expiry",
                    "type": "uint256"
                },
                {
                    "internalType": "bool",
                    "name": "_gameMode",
                    "type": "bool"
                }
            ],
            "name": "createEnvelope",
            "outputs": [],
            "stateMutability": "nonpayable",
            "type": "function"
        },
        {
            "inputs": [],
            "name": "getMyEnvelopes",
            "outputs": [
                {
                    "internalType": "uint256[]",
                    "name": "",
                    "type": "uint256[]"
                }
            ],
            "stateMutability": "view",
            "type": "function"
        },
        {
            "inputs": [
                {
                    "internalType": "address",
                    "name": "",
                    "type": "address"
                },
                {
                    "internalType": "uint256",
                    "name": "",
                    "type": "uint256"
                }
            ],
            "name": "myEnvelopes",
            "outputs": [
                {
                    "internalType": "uint256",
                    "name": "",
                    "type": "uint256"
                }
            ],
            "stateMutability": "view",
            "type": "function"
        },
        {
            "inputs": [],
            "name": "paused",
            "outputs": [
                {
                    "internalType": "bool",
                    "name": "",
                    "type": "bool"
                }
            ],
            "stateMutability": "view",
            "type": "function"
        }
    ],
    "bytecode": "0x608060405234801561001057600080fd5b5060016000819055805460ff191690556115308061002f6000396000f3fe608060405234801561001057600080fd5b50600436106100625760003560e01c806315c25a3d146100675780635c975abb1461007c5780635d5777401461009757806375b4b17d146100ac5780638b1d089d146100cd578063dc5433fe146100e0575b600080fd5b61007a610075366004611091565b61010a565b005b60015460ff1660405190151581526020015b60405180910390f35b61009f610673565b60405161008e9190611154565b6100bf6100ba366004611198565b6106d4565b60405190815260200161008e565b61007a6100db3660046111c4565b610705565b6100f36100ee3660046111c4565b610ad0565b60405161008e9b9a99989796959493929190611243565b610112610c48565b4282116101795760405162461bcd60e51b815260206004820152602a60248201527f4578706972792053686f756c642062652067726561746572207468616e2063756044820152697272656e742074696d6560b01b60648201526084015b60405180910390fd5b600061018585876112f9565b905060008a600181111561019b5761019b6111dd565b036102cf5783156101d85760405162461bcd60e51b81526020600482015260076024820152664e6f204e46547360c81b6044820152606401610170565b6040516370a0823160e01b81523360048201526001600160a01b038a16906370a0823190602401602060405180830381865afa15801561021c573d6000803e3d6000fd5b505050506040513d601f19601f820116820180604052508101906102409190611316565b8111156102b55760405162461bcd60e51b815260206004820152603a60248201527f4e6f7420656e6f75676820746f6b656e7320696e20796f75722077616c6c657460448201527f2c20706c6561736520747279206c657373657220616d6f756e740000000000006064820152608401610170565b6102ca6001600160a01b038a16333084610c90565b6104b0565b60018a60018111156102e3576102e36111dd565b036104b057856001146103385760405162461bcd60e51b815260206004820152601860248201527f204f6e6c79203120706572736f6e2063616e20636c61696d00000000000000006044820152606401610170565b846001146103885760405162461bcd60e51b815260206004820152601f60248201527f204f6e6c792031204e46542063616e20636c61696d20617420612074696d65006044820152606401610170565b6040516331a9108f60e11b81526004810185905233906001600160a01b038b1690636352211e90602401602060405180830381865afa1580156103cf573d6000803e3d6000fd5b505050506040513d601f19601f820116820180604052508101906103f3919061132f565b6001600160a01b0316146104495760405162461bcd60e51b815260206004820152601760248201527f596f7520646f206e6f74206f776e2074686973204e46540000000000000000006044820152606401610170565b6040516323b872dd60e01b8152336004820152306024820152604481018590526001600160a01b038a16906323b872dd90606401600060405180830381600087803b15801561049757600080fd5b505af11580156104ab573d6000803e3d6000fd5b505050505b6040516bffffffffffffffffffffffff193360601b16602082015244603482015242605482015260009060740160408051601f1981840301815282825280516020918201203360009081526002835283812080546001818101835591835293909120909201819055610160840190925290925081908d90811115610536576105366111dd565b81526001600160a01b038c1660208083019190915260408083018d9052606083018c9052608083018b905260a083018a905260c083018b905260e083018890528615156101008401526101208301869052610140909201889052600084815260039091522081518154829060ff1916600183818111156105b8576105b86111dd565b0217905550602082015181546001600160a01b0390911661010002610100600160a81b0319909116178155604082015160018201906105f790826113db565b506060820151600282019061060c90826113db565b506080820151600382015560a0820151600482015560c0820151600582015560e0820151600682015561010082015160078201805460ff19169115159190911790556101208201516008820155610140909101516009909101555050505050505050505050565b336000908152600260209081526040918290208054835181840281018401909452808452606093928301828280156106ca57602002820191906000526020600020905b8154815260200190600101908083116106b6575b5050505050905090565b600260205281600052604060002081815481106106f057600080fd5b90600052602060002001600091509150505481565b61070d610cf0565b600081815260036020526040902060060154421061076d5760405162461bcd60e51b815260206004820152601e60248201527f54686520456e76656c6f70656420686173206265656e206578706972656400006044820152606401610170565b6000818152600360205260409020600501546107bb5760405162461bcd60e51b815260206004820152600d60248201526c139bc810db185a5b481319599d609a1b6044820152606401610170565b6000818152600360205260409020600501546107d99060019061149b565b60008281526003602052604081206005810192909255905460ff166001811115610805576108056111dd565b0361093d57600081815260036020526040908190205490516370a0823160e01b81523060048201526101009091046001600160a01b0316906370a0823190602401602060405180830381865afa158015610863573d6000803e3d6000fd5b505050506040513d601f19601f820116820180604052508101906108879190611316565b60008281526003602052604090206008015411156108db5760405162461bcd60e51b81526020600482015260116024820152704e6f7420656e6f75676820746f6b656e7360781b6044820152606401610170565b600081815260036020526040902060048101546008909101546108fe919061149b565b6000828152600360205260409020600881019190915560048101549054610938916101009091046001600160a01b03169030903390610c90565b610ac3565b600160008281526003602052604090205460ff166001811115610962576109626111dd565b03610ac35760008181526003602052604090819020805460099091015491516331a9108f60e11b815230926101009092046001600160a01b031691636352211e916109b4919060040190815260200190565b602060405180830381865afa1580156109d1573d6000803e3d6000fd5b505050506040513d601f19601f820116820180604052508101906109f5919061132f565b6001600160a01b031614610a415760405162461bcd60e51b8152602060048201526013602482015272191bc81b9bdd081bdddb881d1a1a5cc8139195606a1b6044820152606401610170565b600081815260036020526040808220600981018390555490516323b872dd60e01b8152306004820152336024820152604481019290925261010090046001600160a01b0316906323b872dd90606401600060405180830381600087803b158015610aaa57600080fd5b505af1158015610abe573d6000803e3d6000fd5b505050505b610acd6001600055565b50565b6003602052600090815260409020805460018201805460ff8316936101009093046001600160a01b0316929190610b0690611353565b80601f0160208091040260200160405190810160405280929190818152602001828054610b3290611353565b8015610b7f5780601f10610b5457610100808354040283529160200191610b7f565b820191906000526020600020905b815481529060010190602001808311610b6257829003601f168201915b505050505090806002018054610b9490611353565b80601f0160208091040260200160405190810160405280929190818152602001828054610bc090611353565b8015610c0d5780601f10610be257610100808354040283529160200191610c0d565b820191906000526020600020905b815481529060010190602001808311610bf057829003601f168201915b505050600384015460048501546005860154600687015460078801546008890154600990990154979894979396509194509260ff909116918b565b60015460ff1615610c8e5760405162461bcd60e51b815260206004820152601060248201526f14185d5cd8589b194e881c185d5cd95960821b6044820152606401610170565b565b604080516001600160a01b0385811660248301528416604482015260648082018490528251808303909101815260849091019091526020810180516001600160e01b03166323b872dd60e01b179052610cea908590610d49565b50505050565b600260005403610d425760405162461bcd60e51b815260206004820152601f60248201527f5265656e7472616e637947756172643a207265656e7472616e742063616c6c006044820152606401610170565b6002600055565b6000610d9e826040518060400160405280602081526020017f5361666545524332303a206c6f772d6c6576656c2063616c6c206661696c6564815250856001600160a01b0316610e209092919063ffffffff16565b805190915015610e1b5780806020019051810190610dbc91906114ae565b610e1b5760405162461bcd60e51b815260206004820152602a60248201527f5361666545524332303a204552433230206f7065726174696f6e20646964206e6044820152691bdd081cdd58d8d9595960b21b6064820152608401610170565b505050565b6060610e2f8484600085610e37565b949350505050565b606082471015610e985760405162461bcd60e51b815260206004820152602660248201527f416464726573733a20696e73756666696369656e742062616c616e636520666f6044820152651c8818d85b1b60d21b6064820152608401610170565b600080866001600160a01b03168587604051610eb491906114cb565b60006040518083038185875af1925050503d8060008114610ef1576040519150601f19603f3d011682016040523d82523d6000602084013e610ef6565b606091505b5091509150610f0787838387610f12565b979650505050505050565b60608315610f81578251600003610f7a576001600160a01b0385163b610f7a5760405162461bcd60e51b815260206004820152601d60248201527f416464726573733a2063616c6c20746f206e6f6e2d636f6e74726163740000006044820152606401610170565b5081610e2f565b610e2f8383815115610f965781518083602001fd5b8060405162461bcd60e51b815260040161017091906114e7565b6001600160a01b0381168114610acd57600080fd5b8035610fd081610fb0565b919050565b634e487b7160e01b600052604160045260246000fd5b600082601f830112610ffc57600080fd5b813567ffffffffffffffff8082111561101757611017610fd5565b604051601f8301601f19908116603f0116810190828211818310171561103f5761103f610fd5565b8160405283815286602085880101111561105857600080fd5b836020870160208301376000602085830101528094505050505092915050565b8015158114610acd57600080fd5b8035610fd081611078565b60008060008060008060008060006101208a8c0312156110b057600080fd5b8935600281106110bf57600080fd5b98506110cd60208b01610fc5565b975060408a013567ffffffffffffffff808211156110ea57600080fd5b6110f68d838e01610feb565b985060608c013591508082111561110c57600080fd5b506111198c828d01610feb565b96505060808a0135945060a08a0135935060c08a0135925060e08a013591506111456101008b01611086565b90509295985092959850929598565b6020808252825182820181905260009190848201906040850190845b8181101561118c57835183529284019291840191600101611170565b50909695505050505050565b600080604083850312156111ab57600080fd5b82356111b681610fb0565b946020939093013593505050565b6000602082840312156111d657600080fd5b5035919050565b634e487b7160e01b600052602160045260246000fd5b60005b8381101561120e5781810151838201526020016111f6565b50506000910152565b6000815180845261122f8160208601602086016111f3565b601f01601f19169290920160200192915050565b600061016060028e1061126657634e487b7160e01b600052602160045260246000fd5b8d83526001600160a01b038d16602084015280604084015261128a8184018d611217565b9050828103606084015261129e818c611217565b9150508860808301528760a08301528660c08301528560e08301526112c861010083018615159052565b61012082019390935261014001529998505050505050505050565b634e487b7160e01b600052601160045260246000fd5b8082028115828204841417611310576113106112e3565b92915050565b60006020828403121561132857600080fd5b5051919050565b60006020828403121561134157600080fd5b815161134c81610fb0565b9392505050565b600181811c9082168061136757607f821691505b60208210810361138757634e487b7160e01b600052602260045260246000fd5b50919050565b601f821115610e1b57600081815260208120601f850160051c810160208610156113b45750805b601f850160051c820191505b818110156113d3578281556001016113c0565b505050505050565b815167ffffffffffffffff8111156113f5576113f5610fd5565b611409816114038454611353565b8461138d565b602080601f83116001811461143e57600084156114265750858301515b600019600386901b1c1916600185901b1785556113d3565b600085815260208120601f198616915b8281101561146d5788860151825594840194600190910190840161144e565b508582101561148b5787850151600019600388901b60f8161c191681555b5050505050600190811b01905550565b81810381811115611310576113106112e3565b6000602082840312156114c057600080fd5b815161134c81611078565b600082516114dd8184602087016111f3565b9190910192915050565b60208152600061134c602083018461121756fea264697066735822122073b1dff2690aeb84d255822fb0b5cfed7d14bcd5e7148813f46c2ffde0d17db864736f6c63430008110033",
    "linkReferences": {},
    "deployedLinkReferences": {}
}